:060000000A128A11532FC1
:100EA40032340A128A1152270A128A11F900830174
:100EB4000A128A118D2F7308720471047004031DC1
:100EC400642F652F672F8C2F8C2F0130F400003096
:100ED400F5000030F6000030F7007408F0027508E1
:100EE400031C750F762F772FF1027608031C760FFB
:100EF4007C2F7D2FF2027708031C770F822F832F1C
:100F0400F3027308720471047004031D8A2F8B2F7B
:100F1400672F8C2F08000630831603139F00FF30C1
:100F240085008601C03087000C30831203139700BC
:100F3400FF308316031392000530831203139200CB
:100F440095010611A52F831203138518AA2FAB2F21
:100F5400AE2F95010611A52F0519B12FB22FBE2F63
:100F6400B42FB42F051DB72FB82FB42FB92F79087C
:100F7400950004308606A52F8519C12FC22FDD2FB9
:100F84007908FF3A0319C72FC82FCD2F0130F80075
:100F94007808F907CD2F790895000030F300003068
:100FA400F2001330F1008830F0000A128A115D2734
:100FB4000A128A11A52F051AE02FE12FA52F79080F
:100FC400031DE52FE82F0130F902E82F7908950079
:100FD4000030F3000030F2001330F1008830F000EC
:100FE4000A128A115D270A128A11A52FA52FA52F8F
:0C0FF400A52FA52FA52F0A128A11002896
:02400E00323F3F
:00000001FF
