:060000000A128A11F82F1C
:100F1C003234730872047104700403190800013030
:100F2C00F4000030F5000030F6000030F7007408D3
:100F3C00F0027508031C750FA42FA52FF10276087B
:100F4C00031C760FAA2FAB2FF2027708031C770F26
:100F5C00B02F8F2FF3028F2F0630831603139F00B1
:100F6C00FF3085008601C03087000C3083120313DC
:100F7C009700FF308316031392000530831203137E
:100F8C00920095010611E82F051DCA2F79089500CE
:100F9C0004308606E82F7908FF3A0319D92F01305F
:100FAC00F8007808F907790895000030F300003054
:100FBC00F2001330F1008830F0000A128A118F27EA
:100FCC000A128A1183120313851CC72F051DCA2F01
:100FDC00851DD12F051AE82F79080319D92F013057
:100FEC00F902D92F0A128A118E27F90083010A12ED
:040FFC008A11B22F75
:02400E0032FF7F
:00000001FF
